{"abi":[{"type":"constructor","inputs":[],"stateMutability":"nonpayable"},{"type":"function","name":"FEE_DENOMINATOR","inputs":[],"outputs":[{"name":"","type":"uint256","internalType":"uint256"}],"stateMutability":"view"},{"type":"function","name":"approve","inputs":[{"name":"to","type":"address","internalType":"address"},{"name":"tokenId","type":"uint256","internalType":"uint256"}],"outputs":[],"stateMutability":"nonpayable"},{"type":"function","name":"balanceOf","inputs":[{"name":"owner","type":"address","internalType":"address"}],"outputs":[{"name":"","type":"uint256","internalType":"uint256"}],"stateMutability":"view"},{"type":"function","name":"buyMarketItem","inputs":[{"name":"tokenId","type":"uint256","internalType":"uint256"}],"outputs":[],"stateMutability":"payable"},{"type":"function","name":"createAuction","inputs":[{"name":"tokenId","type":"uint256","internalType":"uint256"},{"name":"startingPrice","type":"uint256","internalType":"uint256"},{"name":"duration","type":"uint256","internalType":"uint256"}],"outputs":[],"stateMutability":"nonpayable"},{"type":"function","name":"createMarketItem","inputs":[{"name":"tokenId","type":"uint256","internalType":"uint256"},{"name":"price","type":"uint256","internalType":"uint256"}],"outputs":[],"stateMutability":"payable"},{"type":"function","name":"endAuction","inputs":[{"name":"tokenId","type":"uint256","internalType":"uint256"}],"outputs":[],"stateMutability":"nonpayable"},{"type":"function","name":"getAllMarketItems","inputs":[],"outputs":[{"name":"","type":"tuple[]","internalType":"struct NFTMarketplace.MarketItem[]","components":[{"name":"tokenId","type":"uint256","internalType":"uint256"},{"name":"seller","type":"address","internalType":"address payable"},{"name":"owner","type":"address","internalType":"address payable"},{"name":"price","type":"uint256","internalType":"uint256"},{"name":"sold","type":"bool","internalType":"bool"},{"name":"isAuction","type":"bool","internalType":"bool"},{"name":"auctionEndTime","type":"uint256","internalType":"uint256"},{"name":"highestBid","type":"uint256","internalType":"uint256"},{"name":"highestBidder","type":"address","internalType":"address"}]}],"stateMutability":"view"},{"type":"function","name":"getApproved","inputs":[{"name":"tokenId","type":"uint256","internalType":"uint256"}],"outputs":[{"name":"","type":"address","internalType":"address"}],"stateMutability":"view"},{"type":"function","name":"getMarketItem","inputs":[{"name":"tokenId","type":"uint256","internalType":"uint256"}],"outputs":[{"name":"","type":"tuple","internalType":"struct NFTMarketplace.MarketItem","components":[{"name":"tokenId","type":"uint256","internalType":"uint256"},{"name":"seller","type":"address","internalType":"address payable"},{"name":"owner","type":"address","internalType":"address payable"},{"name":"price","type":"uint256","internalType":"uint256"},{"name":"sold","type":"bool","internalType":"bool"},{"name":"isAuction","type":"bool","internalType":"bool"},{"name":"auctionEndTime","type":"uint256","internalType":"uint256"},{"name":"highestBid","type":"uint256","internalType":"uint256"},{"name":"highestBidder","type":"address","internalType":"address"}]}],"stateMutability":"view"},{"type":"function","name":"getMyCreatedNFTs","inputs":[{"name":"user","type":"address","internalType":"address"}],"outputs":[{"name":"","type":"uint256[]","internalType":"uint256[]"}],"stateMutability":"view"},{"type":"function","name":"getMyNFTs","inputs":[{"name":"user","type":"address","internalType":"address"}],"outputs":[{"name":"","type":"uint256[]","internalType":"uint256[]"}],"stateMutability":"view"},{"type":"function","name":"isApprovedForAll","inputs":[{"name":"owner","type":"address","internalType":"address"},{"name":"operator","type":"address","internalType":"address"}],"outputs":[{"name":"","type":"bool","internalType":"bool"}],"stateMutability":"view"},{"type":"function","name":"marketItems","inputs":[{"name":"","type":"uint256","internalType":"uint256"}],"outputs":[{"name":"tokenId","type":"uint256","internalType":"uint256"},{"name":"seller","type":"address","internalType":"address payable"},{"name":"owner","type":"address","internalType":"address payable"},{"name":"price","type":"uint256","internalType":"uint256"},{"name":"sold","type":"bool","internalType":"bool"},{"name":"isAuction","type":"bool","internalType":"bool"},{"name":"auctionEndTime","type":"uint256","internalType":"uint256"},{"name":"highestBid","type":"uint256","internalType":"uint256"},{"name":"highestBidder","type":"address","internalType":"address"}],"stateMutability":"view"},{"type":"function","name":"minPrice","inputs":[],"outputs":[{"name":"","type":"uint256","internalType":"uint256"}],"stateMutability":"view"},{"type":"function","name":"mintNFT","inputs":[{"name":"uri","type":"string","internalType":"string"}],"outputs":[{"name":"","type":"uint256","internalType":"uint256"}],"stateMutability":"nonpayable"},{"type":"function","name":"name","inputs":[],"outputs":[{"name":"","type":"string","internalType":"string"}],"stateMutability":"view"},{"type":"function","name":"owner","inputs":[],"outputs":[{"name":"","type":"address","internalType":"address"}],"stateMutability":"view"},{"type":"function","name":"ownerOf","inputs":[{"name":"tokenId","type":"uint256","internalType":"uint256"}],"outputs":[{"name":"","type":"address","internalType":"address"}],"stateMutability":"view"},{"type":"function","name":"placeBid","inputs":[{"name":"tokenId","type":"uint256","internalType":"uint256"}],"outputs":[],"stateMutability":"payable"},{"type":"function","name":"platformFeePercentage","inputs":[],"outputs":[{"name":"","type":"uint256","internalType":"uint256"}],"stateMutability":"view"},{"type":"function","name":"renounceOwnership","inputs":[],"outputs":[],"stateMutability":"nonpayable"},{"type":"function","name":"safeTransferFrom","inputs":[{"name":"from","type":"address","internalType":"address"},{"name":"to","type":"address","internalType":"address"},{"name":"tokenId","type":"uint256","internalType":"uint256"}],"outputs":[],"stateMutability":"nonpayable"},{"type":"function","name":"safeTransferFrom","inputs":[{"name":"from","type":"address","internalType":"address"},{"name":"to","type":"address","internalType":"address"},{"name":"tokenId","type":"uint256","internalType":"uint256"},{"name":"data","type":"bytes","internalType":"bytes"}],"outputs":[],"stateMutability":"nonpayable"},{"type":"function","name":"setApprovalForAll","inputs":[{"name":"operator","type":"address","internalType":"address"},{"name":"approved","type":"bool","internalType":"bool"}],"outputs":[],"stateMutability":"nonpayable"},{"type":"function","name":"setMinPrice","inputs":[{"name":"newMinPrice","type":"uint256","internalType":"uint256"}],"outputs":[],"stateMutability":"nonpayable"},{"type":"function","name":"setPlatformFeePercentage","inputs":[{"name":"newFeePercentage","type":"uint256","internalType":"uint256"}],"outputs":[],"stateMutability":"nonpayable"},{"type":"function","name":"supportsInterface","inputs":[{"name":"interfaceId","type":"bytes4","internalType":"bytes4"}],"outputs":[{"name":"","type":"bool","internalType":"bool"}],"stateMutability":"view"},{"type":"function","name":"symbol","inputs":[],"outputs":[{"name":"","type":"string","internalType":"string"}],"stateMutability":"view"},{"type":"function","name":"tokenURI","inputs":[{"name":"tokenId","type":"uint256","internalType":"uint256"}],"outputs":[{"name":"","type":"string","internalType":"string"}],"stateMutability":"view"},{"type":"function","name":"transferFrom","inputs":[{"name":"from","type":"address","internalType":"address"},{"name":"to","type":"address","internalType":"address"},{"name":"tokenId","type":"uint256","internalType":"uint256"}],"outputs":[],"stateMutability":"nonpayable"},{"type":"function","name":"transferOwnership","inputs":[{"name":"newOwner","type":"address","internalType":"address"}],"outputs":[],"stateMutability":"nonpayable"},{"type":"function","name":"withdraw","inputs":[],"outputs":[],"stateMutability":"nonpayable"},{"type":"event","name":"Approval","inputs":[{"name":"owner","type":"address","indexed":true,"internalType":"address"},{"name":"approved","type":"address","indexed":true,"internalType":"address"},{"name":"tokenId","type":"uint256","indexed":true,"internalType":"uint256"}],"anonymous":false},{"type":"event","name":"ApprovalForAll","inputs":[{"name":"owner","type":"address","indexed":true,"internalType":"address"},{"name":"operator","type":"address","indexed":true,"internalType":"address"},{"name":"approved","type":"bool","indexed":false,"internalType":"bool"}],"anonymous":false},{"type":"event","name":"AuctionCreated","inputs":[{"name":"tokenId","type":"uint256","indexed":true,"internalType":"uint256"},{"name":"seller","type":"address","indexed":false,"internalType":"address"},{"name":"startingPrice","type":"uint256","indexed":false,"internalType":"uint256"},{"name":"auctionEndTime","type":"uint256","indexed":false,"internalType":"uint256"}],"anonymous":false},{"type":"event","name":"AuctionEnded","inputs":[{"name":"tokenId","type":"uint256","indexed":true,"internalType":"uint256"},{"name":"winner","type":"address","indexed":false,"internalType":"address"},{"name":"amount","type":"uint256","indexed":false,"internalType":"uint256"}],"anonymous":false},{"type":"event","name":"BatchMetadataUpdate","inputs":[{"name":"_fromTokenId","type":"uint256","indexed":false,"internalType":"uint256"},{"name":"_toTokenId","type":"uint256","indexed":false,"internalType":"uint256"}],"anonymous":false},{"type":"event","name":"BidPlaced","inputs":[{"name":"tokenId","type":"uint256","indexed":true,"internalType":"uint256"},{"name":"bidder","type":"address","indexed":false,"internalType":"address"},{"name":"amount","type":"uint256","indexed":false,"internalType":"uint256"}],"anonymous":false},{"type":"event","name":"MarketItemCreated","inputs":[{"name":"tokenId","type":"uint256","indexed":true,"internalType":"uint256"},{"name":"seller","type":"address","indexed":false,"internalType":"address"},{"name":"owner","type":"address","indexed":false,"internalType":"address"},{"name":"price","type":"uint256","indexed":false,"internalType":"uint256"},{"name":"sold","type":"bool","indexed":false,"internalType":"bool"}],"anonymous":false},{"type":"event","name":"MarketItemSold","inputs":[{"name":"tokenId","type":"uint256","indexed":true,"internalType":"uint256"},{"name":"seller","type":"address","indexed":false,"internalType":"address"},{"name":"buyer","type":"address","indexed":false,"internalType":"address"},{"name":"price","type":"uint256","indexed":false,"internalType":"uint256"}],"anonymous":false},{"type":"event","name":"MetadataUpdate","inputs":[{"name":"_tokenId","type":"uint256","indexed":false,"internalType":"uint256"}],"anonymous":false},{"type":"event","name":"OwnershipTransferred","inputs":[{"name":"previousOwner","type":"address","indexed":true,"internalType":"address"},{"name":"newOwner","type":"address","indexed":true,"internalType":"address"}],"anonymous":false},{"type":"event","name":"Transfer","inputs":[{"name":"from","type":"address","indexed":true,"internalType":"address"},{"name":"to","type":"address","indexed":true,"internalType":"address"},{"name":"tokenId","type":"uint256","indexed":true,"internalType":"uint256"}],"anonymous":false},{"type":"error","name":"ERC721IncorrectOwner","inputs":[{"name":"sender","type":"address","internalType":"address"},{"name":"tokenId","type":"uint256","internalType":"uint256"},{"name":"owner","type":"address","internalType":"address"}]},{"type":"error","name":"ERC721InsufficientApproval","inputs":[{"name":"operator","type":"address","internalType":"address"},{"name":"tokenId","type":"uint256","internalType":"uint256"}]},{"type":"error","name":"ERC721InvalidApprover","inputs":[{"name":"approver","type":"address","internalType":"address"}]},{"type":"error","name":"ERC721InvalidOperator","inputs":[{"name":"operator","type":"address","internalType":"address"}]},{"type":"error","name":"ERC721InvalidOwner","inputs":[{"name":"owner","type":"address","internalType":"address"}]},{"type":"error","name":"ERC721InvalidReceiver","inputs":[{"name":"receiver","type":"address","internalType":"address"}]},{"type":"error","name":"ERC721InvalidSender","inputs":[{"name":"sender","type":"address","internalType":"address"}]},{"type":"error","name":"ERC721NonexistentToken","inputs":[{"name":"tokenId","type":"uint256","internalType":"uint256"}]},{"type":"error","name":"OwnableInvalidOwner","inputs":[{"name":"owner","type":"address","internalType":"address"}]},{"type":"error","name":"OwnableUnauthorizedAccount","inputs":[{"name":"account","type":"address","internalType":"address"}]},{"type":"error","name":"ReentrancyGuardReentrantCall","inputs":[]}],"bytecode":{"object":"0x60806040525f6009555f600a5560fa600b55662386f26fc10000600c5534801562000028575f80fd5b50336040518060400160405280600f81526020016e4e4654204d61726b6574706c61636560881b815250604051806040016040528060048152602001634e46544d60e01b815250815f90816200007f9190620001cc565b5060016200008e8282620001cc565b50506001600755506001600160a01b038116620000c457604051631e4fbdf760e01b81525f600482015260240160405180910390fd5b620000cf81620000db565b50600160095562000294565b600880546001600160a01b038381166001600160a01b0319831681179093556040519116919082907f8be0079c531659141344cd1fd0a4f28419497f9722a3daafe3b4186f6b6457e0905f90a35050565b634e487b7160e01b5f52604160045260245ffd5b600181811c908216806200015557607f821691505b6020821081036200017457634e487b7160e01b5f52602260045260245ffd5b50919050565b601f821115620001c7575f81815260208120601f850160051c81016020861015620001a25750805b601f850160051c820191505b81811015620001c357828155600101620001ae565b5050505b505050565b81516001600160401b03811115620001e857620001e86200012c565b6200020081620001f9845462000140565b846200017a565b602080601f83116001811462000236575f84156200021e5750858301515b5f19600386901b1c1916600185901b178555620001c3565b5f85815260208120601f198616915b82811015620002665788860151825594840194600190910190840162000245565b50858210156200028457878501515f19600388901b60f8161c191681555b5050505050600190811b01905550565b612ccd80620002a25f395ff3fe6080604052600436106101e6575f3560e01c80638da5cb5b11610108578063cda4beef1161009d578063e921ee6e1161006d578063e921ee6e146105e8578063e985e9c514610607578063f16d376c14610626578063f2fde38b14610647578063fb37e88314610666575f80fd5b8063cda4beef1461058a578063cdd78cfc146105a9578063d73792a9146105be578063e45be8eb146105d3575f80fd5b8063b88d4fde116100d8578063b88d4fde14610501578063b9a2de3a14610520578063c7be7a491461053f578063c87b56dd1461056b575f80fd5b80638da5cb5b1461049e57806395d89b41146104bb5780639979ef45146104cf578063a22cb465146104e2575f80fd5b80633ccfd60b1161017e5780636352211e1161014e5780636352211e1461041f57806370a082311461043e578063715018a61461046b5780638333903e1461047f575f80fd5b80633ccfd60b1461030857806342842e0e1461031c57806351f28e141461033b5780635ea8cd1214610400575f80fd5b806323b872dd116101b957806323b872dd14610297578063351901c3146102b6578063361c1995146102c957806338debbf1146102dc575f80fd5b806301ffc9a7146101ea57806306fdde031461021e578063081812fc1461023f578063095ea7b314610276575b5f80fd5b3480156101f5575f80fd5b5061020961020436600461260e565b610685565b60405190151581526020015b60405180910390f35b348015610229575f80fd5b50610232610695565b6040516102159190612676565b34801561024a575f80fd5b5061025e610259366004612688565b610724565b6040516001600160a01b039091168152602001610215565b348015610281575f80fd5b506102956102903660046126ba565b61074b565b005b3480156102a2575f80fd5b506102956102b13660046126e2565b61075a565b6102956102c4366004612688565b6107e8565b6102956102d736600461271b565b610a45565b3480156102e7575f80fd5b506102fb6102f636600461273b565b610d2a565b6040516102159190612754565b348015610313575f80fd5b50610295610e49565b348015610327575f80fd5b506102956103363660046126e2565b610ecd565b348015610346575f80fd5b506103ae610355366004612688565b600d6020525f90815260409020805460018201546002830154600384015460048501546005860154600687015460079097015495966001600160a01b039586169694861695939460ff8085169561010090950416931689565b60408051998a526001600160a01b0398891660208b01529688169689019690965260608801949094529115156080870152151560a086015260c085015260e08401521661010082015261012001610215565b34801561040b575f80fd5b5061029561041a366004612688565b610eec565b34801561042a575f80fd5b5061025e610439366004612688565b610ef9565b348015610449575f80fd5b5061045d61045836600461273b565b610f03565b604051908152602001610215565b348015610476575f80fd5b50610295610f48565b34801561048a575f80fd5b50610295610499366004612688565b610f5b565b3480156104a9575f80fd5b506008546001600160a01b031661025e565b3480156104c6575f80fd5b50610232610fb2565b6102956104dd366004612688565b610fc1565b3480156104ed575f80fd5b506102956104fc366004612797565b611200565b34801561050c575f80fd5b5061029561051b366004612857565b61120b565b34801561052b575f80fd5b5061029561053a366004612688565b611223565b34801561054a575f80fd5b5061055e610559366004612688565b611538565b604051610215919061294d565b348015610576575f80fd5b50610232610585366004612688565b6115d2565b348015610595575f80fd5b506102956105a436600461295c565b6115dd565b3480156105b4575f80fd5b5061045d600b5481565b3480156105c9575f80fd5b5061045d61271081565b3480156105de575f80fd5b5061045d600c5481565b3480156105f3575f80fd5b506102fb61060236600461273b565b611869565b348015610612575f80fd5b50610209610621366004612985565b61197a565b348015610631575f80fd5b5061063a6119a7565b60405161021591906129b6565b348015610652575f80fd5b5061029561066136600461273b565b611b1f565b348015610671575f80fd5b5061045d6106803660046129f8565b611b59565b5f61068f82611b8d565b92915050565b60605f80546106a390612a3d565b80601f01602080910402602001604051908101604052809291908181526020018280546106cf90612a3d565b801561071a5780601f106106f15761010080835404028352916020019161071a565b820191905f5260205f20905b8154815290600101906020018083116106fd57829003601f168201915b5050505050905090565b5f61072e82611bb1565b505f828152600460205260409020546001600160a01b031661068f565b610756828233611be9565b5050565b6001600160a01b03821661078857604051633250574960e11b81525f60048201526024015b60405180910390fd5b5f610794838333611bf6565b9050836001600160a01b0316816001600160a01b0316146107e2576040516364283d7b60e01b81526001600160a01b038086166004830152602482018490528216604482015260640161077f565b50505050565b6107f0611ce8565b5f818152600d60205260409020600481015460ff16156108495760405162461bcd60e51b8152602060048201526014602482015273125d195b481a5cc8185b1c9958591e481cdbdb1960621b604482015260640161077f565b8060030154341461089c5760405162461bcd60e51b815260206004820152601e60248201527f506c65617365207375626d6974207468652061736b696e672070726963650000604482015260640161077f565b6004810154610100900460ff16156108f65760405162461bcd60e51b815260206004820152601760248201527f5468697320697320616e2061756374696f6e206974656d000000000000000000604482015260640161077f565b5f612710600b54346109089190612a89565b6109129190612aa0565b90505f61091f8234612abf565b90506109336008546001600160a01b031690565b6001600160a01b03166108fc8390811502906040515f60405180830381858888f19350505050158015610968573d5f803e3d5ffd5b5060018301546040516001600160a01b039091169082156108fc029083905f818181858888f193505050501580156109a2573d5f803e3d5ffd5b506109ae303386611d12565b6002830180546001600160a01b0319163317905560048301805460ff19166001179055600a8054905f6109e083612ad2565b90915550506001830154604080516001600160a01b039092168252336020830152349082015284907f150ffca547cf855e7fcf5daa82e41c6523b5fb2c8b1309bbb6cf2f87c6ae5a319060600160405180910390a2505050610a426001600755565b50565b600c54811015610aa35760405162461bcd60e51b8152602060048201526024808201527f5072696365206d757374206265206174206c65617374206d696e696d756d20706044820152637269636560e01b606482015260840161077f565b5f8111610af25760405162461bcd60e51b815260206004820152601c60248201527f5072696365206d7573742062652067726561746572207468616e203000000000604482015260640161077f565b610afb82611bb1565b5033610b0683610ef9565b6001600160a01b031614610b5c5760405162461bcd60e51b815260206004820152601e60248201527f596f752063616e206f6e6c792073656c6c20796f7572206f776e204e46540000604482015260640161077f565b610b67333084611d12565b604051806101200160405280838152602001336001600160a01b03168152602001306001600160a01b031681526020018281526020015f151581526020015f151581526020015f81526020015f81526020015f6001600160a01b0316815250600d5f8481526020019081526020015f205f820151815f01556020820151816001015f6101000a8154816001600160a01b0302191690836001600160a01b031602179055506040820151816002015f6101000a8154816001600160a01b0302191690836001600160a01b03160217905550606082015181600301556080820151816004015f6101000a81548160ff02191690831515021790555060a08201518160040160016101000a81548160ff02191690831515021790555060c0820151816005015560e08201518160060155610100820151816007015f6101000a8154816001600160a01b0302191690836001600160a01b03160217905550905050817fb640004f1d14576d0c209e240cad0410e0d8c0c33a09375861fbadae2588a98d3330845f604051610d1e94939291906001600160a01b0394851681529290931660208301526040820152901515606082015260800190565b60405180910390a25050565b60605f6001600954610d3c9190612abf565b90505f8060015b838111610d8d575f818152600d60205260409020600101546001600160a01b03808816911603610d7b57610d78600184612aea565b92505b80610d8581612ad2565b915050610d43565b505f8267ffffffffffffffff811115610da857610da86127d0565b604051908082528060200260200182016040528015610dd1578160200160208202803683370190505b50905060015b848111610e3f575f818152600d60205260409020600101546001600160a01b03808916911603610e2d5780828481518110610e1457610e14612afd565b6020908102919091010152610e2a600184612aea565b92505b80610e3781612ad2565b915050610dd7565b5095945050505050565b610e51611dbf565b4780610e965760405162461bcd60e51b81526020600482015260146024820152734e6f2066756e647320746f20776974686472617760601b604482015260640161077f565b6008546040516001600160a01b039091169082156108fc029083905f818181858888f19350505050158015610756573d5f803e3d5ffd5b610ee783838360405180602001604052805f81525061120b565b505050565b610ef4611dbf565b600c55565b5f61068f82611bb1565b5f6001600160a01b038216610f2d576040516322718ad960e21b81525f600482015260240161077f565b506001600160a01b03165f9081526003602052604090205490565b610f50611dbf565b610f595f611dec565b565b610f63611dbf565b6103e8811115610fad5760405162461bcd60e51b81526020600482015260156024820152744665652063616e6e6f74206578636565642031302560581b604482015260640161077f565b600b55565b6060600180546106a390612a3d565b610fc9611ce8565b5f818152600d602052604090206004810154610100900460ff1661102f5760405162461bcd60e51b815260206004820152601b60248201527f54686973206973206e6f7420616e2061756374696f6e206974656d0000000000604482015260640161077f565b806005015442106110765760405162461bcd60e51b8152602060048201526011602482015270105d58dd1a5bdb881a185cc8195b991959607a1b604482015260640161077f565b806006015434116110dd5760405162461bcd60e51b815260206004820152602b60248201527f426964206d75737420626520686967686572207468616e2063757272656e742060448201526a1a1a59da195cdd08189a5960aa1b606482015260840161077f565b60018101546001600160a01b031633036111485760405162461bcd60e51b815260206004820152602660248201527f53656c6c65722063616e6e6f7420626964206f6e207468656972206f776e20616044820152653ab1ba34b7b760d11b606482015260840161077f565b60078101546001600160a01b03161561119a57600781015460068201546040516001600160a01b039092169181156108fc0291905f818181858888f19350505050158015611198573d5f803e3d5ffd5b505b34600682018190556007820180546001600160a01b0319163390811790915560408051918252602082019290925283917f0e54eff26401bf69b81b26f60bd85ef47f5d85275c1d268d84f68d6897431c47910160405180910390a250610a426001600755565b610756338383611e3d565b61121684848461075a565b6107e23385858585611edb565b61122b611ce8565b5f818152600d602052604090206004810154610100900460ff166112915760405162461bcd60e51b815260206004820152601b60248201527f54686973206973206e6f7420616e2061756374696f6e206974656d0000000000604482015260640161077f565b80600501544210156112e55760405162461bcd60e51b815260206004820152601960248201527f41756374696f6e20686173206e6f7420656e6465642079657400000000000000604482015260640161077f565b600481015460ff16156113325760405162461bcd60e51b8152602060048201526015602482015274105d58dd1a5bdb88185b1c9958591e48195b991959605a1b604482015260640161077f565b60078101546001600160a01b0316156114b6575f612710600b54836006015461135b9190612a89565b6113659190612aa0565b90505f8183600601546113789190612abf565b905061138c6008546001600160a01b031690565b6001600160a01b03166108fc8390811502906040515f60405180830381858888f193505050501580156113c1573d5f803e3d5ffd5b5060018301546040516001600160a01b039091169082156108fc029083905f818181858888f193505050501580156113fb573d5f803e3d5ffd5b5060078301546114169030906001600160a01b031686611d12565b60078301546002840180546001600160a01b0319166001600160a01b0390921691909117905560048301805460ff19166001179055600a8054905f61145a83612ad2565b909155505060078301546006840154604080516001600160a01b039093168352602083019190915285917fd2aa34a4fdbbc6dff6a3e56f46e0f3ae2a31d7785ff3487aa5c95c642acea501910160405180910390a2505061152d565b60018101546114d09030906001600160a01b031684611d12565b5f828152600d602052604081208181556001810180546001600160a01b0319908116909155600282018054821690556003820183905560048201805461ffff19169055600582018390556006820192909255600701805490911690555b50610a426001600755565b6115406125ae565b505f908152600d60209081526040918290208251610120810184528154815260018201546001600160a01b0390811693820193909352600282015483169381019390935260038101546060840152600481015460ff808216151560808601526101009182900416151560a0850152600582015460c0850152600682015460e08501526007909101549091169082015290565b606061068f82612003565b600c548210156116455760405162461bcd60e51b815260206004820152602d60248201527f5374617274696e67207072696365206d757374206265206174206c656173742060448201526c6d696e696d756d20707269636560981b606482015260840161077f565b5f81116116945760405162461bcd60e51b815260206004820152601f60248201527f4475726174696f6e206d7573742062652067726561746572207468616e203000604482015260640161077f565b61169d83611bb1565b50336116a884610ef9565b6001600160a01b0316146117085760405162461bcd60e51b815260206004820152602160248201527f596f752063616e206f6e6c792061756374696f6e20796f7572206f776e204e466044820152601560fa1b606482015260840161077f565b611713333085611d12565b60408051610120810182528481523360208201523091810191909152606081018390525f6080820152600160a082015260c081016117518342612aea565b815260208082018590525f6040928301819052868152600d825282902083518155908301516001820180546001600160a01b03199081166001600160a01b039384161790915592840151600283018054851691831691909117905560608401516003830155608084015160048301805460a087015161ffff1990911692151561ff00191692909217610100921515830217905560c0850151600584015560e0850151600684015590930151600790910180549092169216919091179055827fc9050d42180a61cb0d9ebb8ad118b62fe6eab12cf12ff752c4a0cc7da9ddf627338461183c8542612aea565b604080516001600160a01b03909416845260208401929092529082015260600160405180910390a2505050565b60605f600160095461187b9190612abf565b90505f8060015b8381116118ca57856001600160a01b031661189c82610ef9565b6001600160a01b0316036118b8576118b5600184612aea565b92505b806118c281612ad2565b915050611882565b505f8267ffffffffffffffff8111156118e5576118e56127d0565b60405190808252806020026020018201604052801561190e578160200160208202803683370190505b50905060015b848111610e3f57866001600160a01b031661192e82610ef9565b6001600160a01b031603611968578082848151811061194f5761194f612afd565b6020908102919091010152611965600184612aea565b92505b8061197281612ad2565b915050611914565b6001600160a01b039182165f90815260056020908152604080832093909416825291909152205460ff1690565b60605f60016009546119b99190612abf565b90505f600a54826119ca9190612abf565b90505f808267ffffffffffffffff8111156119e7576119e76127d0565b604051908082528060200260200182016040528015611a2057816020015b611a0d6125ae565b815260200190600190039081611a055790505b50905060015b848111611b16575f818152600d602052604081206004015460ff1615159003611b04575f818152600d60209081526040918290208251610120810184528154815260018201546001600160a01b0390811693820193909352600282015483169381019390935260038101546060840152600481015460ff808216151560808601526101009182900416151560a0850152600582015460c0850152600682015460e0850152600790910154909116908201528251839085908110611aeb57611aeb612afd565b6020908102919091010152611b01600184612aea565b92505b80611b0e81612ad2565b915050611a26565b50949350505050565b611b27611dbf565b6001600160a01b038116611b5057604051631e4fbdf760e01b81525f600482015260240161077f565b610a4281611dec565b6009545f90611b68338261210e565b611b72818461216f565b60098054905f611b8183612ad2565b90915550909392505050565b5f6001600160e01b03198216632483248360e11b148061068f575061068f826121be565b5f818152600260205260408120546001600160a01b03168061068f57604051637e27328960e01b81526004810184905260240161077f565b610ee7838383600161220d565b5f828152600260205260408120546001600160a01b0390811690831615611c2257611c22818486612311565b6001600160a01b03811615611c5c57611c3d5f855f8061220d565b6001600160a01b0381165f90815260036020526040902080545f190190555b6001600160a01b03851615611c8a576001600160a01b0385165f908152600360205260409020805460010190555b5f8481526002602052604080822080546001600160a01b0319166001600160a01b0389811691821790925591518793918516917fddf252ad1be2c89b69c2b068fc378daa952ba7f163c4a11628f55a4df523b3ef91a4949350505050565b600260075403611d0b57604051633ee5aeb560e01b815260040160405180910390fd5b6002600755565b6001600160a01b038216611d3b57604051633250574960e11b81525f600482015260240161077f565b5f611d4783835f611bf6565b90506001600160a01b038116611d7357604051637e27328960e01b81526004810183905260240161077f565b836001600160a01b0316816001600160a01b0316146107e2576040516364283d7b60e01b81526001600160a01b038086166004830152602482018490528216604482015260640161077f565b6008546001600160a01b03163314610f595760405163118cdaa760e01b815233600482015260240161077f565b600880546001600160a01b038381166001600160a01b0319831681179093556040519116919082907f8be0079c531659141344cd1fd0a4f28419497f9722a3daafe3b4186f6b6457e0905f90a35050565b6001600160a01b038216611e6f57604051630b61174360e31b81526001600160a01b038316600482015260240161077f565b6001600160a01b038381165f81815260056020908152604080832094871680845294825291829020805460ff191686151590811790915591519182527f17307eab39ab6107e8899845ad3d59bd9653f200f220920489ca2b5937696c31910160405180910390a3505050565b6001600160a01b0383163b15611ffc57604051630a85bd0160e11b81526001600160a01b0384169063150b7a0290611f1d908890889087908790600401612b11565b6020604051808303815f875af1925050508015611f57575060408051601f3d908101601f19168201909252611f5491810190612b4d565b60015b611fbe573d808015611f84576040519150601f19603f3d011682016040523d82523d5f602084013e611f89565b606091505b5080515f03611fb657604051633250574960e11b81526001600160a01b038516600482015260240161077f565b805160208201fd5b6001600160e01b03198116630a85bd0160e11b14611ffa57604051633250574960e11b81526001600160a01b038516600482015260240161077f565b505b5050505050565b606061200e82611bb1565b505f828152600660205260408120805461202790612a3d565b80601f016020809104026020016040519081016040528092919081815260200182805461205390612a3d565b801561209e5780601f106120755761010080835404028352916020019161209e565b820191905f5260205f20905b81548152906001019060200180831161208157829003601f168201915b505050505090505f6120ba60408051602081019091525f815290565b905080515f036120cb575092915050565b8151156120fd5780826040516020016120e5929190612b68565b60405160208183030381529060405292505050919050565b61210684612375565b949350505050565b6001600160a01b03821661213757604051633250574960e11b81525f600482015260240161077f565b5f61214383835f611bf6565b90506001600160a01b03811615610ee7576040516339e3563760e11b81525f600482015260240161077f565b5f8281526006602052604090206121868282612bdb565b506040518281527ff8e1a15aba9398e019f0b49df1a4fde98ee17ae345cb5f6b5e2c27f5033e8ce79060200160405180910390a15050565b5f6001600160e01b031982166380ac58cd60e01b14806121ee57506001600160e01b03198216635b5e139f60e01b145b8061068f57506301ffc9a760e01b6001600160e01b031983161461068f565b808061222157506001600160a01b03821615155b156122e2575f61223084611bb1565b90506001600160a01b0383161580159061225c5750826001600160a01b0316816001600160a01b031614155b801561226f575061226d818461197a565b155b156122985760405163a9fbf51f60e01b81526001600160a01b038416600482015260240161077f565b81156122e05783856001600160a01b0316826001600160a01b03167f8c5be1e5ebec7d5bd14f71427d1e84f3dd0314c0f7b2291e5b200ac8c7c3b92560405160405180910390a45b505b50505f90815260046020526040902080546001600160a01b0319166001600160a01b0392909216919091179055565b61231c8383836123e6565b610ee7576001600160a01b03831661234a57604051637e27328960e01b81526004810182905260240161077f565b60405163177e802f60e01b81526001600160a01b03831660048201526024810182905260440161077f565b606061238082611bb1565b505f61239660408051602081019091525f815290565b90505f8151116123b45760405180602001604052805f8152506123df565b806123be84612447565b6040516020016123cf929190612b68565b6040516020818303038152906040525b9392505050565b5f6001600160a01b038316158015906121065750826001600160a01b0316846001600160a01b0316148061241f575061241f848461197a565b806121065750505f908152600460205260409020546001600160a01b03908116911614919050565b60605f612453836124d7565b60010190505f8167ffffffffffffffff811115612472576124726127d0565b6040519080825280601f01601f19166020018201604052801561249c576020820181803683370190505b5090508181016020015b5f19016f181899199a1a9b1b9c1cb0b131b232b360811b600a86061a8153600a85049450846124a657509392505050565b5f8072184f03e93ff9f4daa797ed6e38ed64bf6a1f0160401b83106125155772184f03e93ff9f4daa797ed6e38ed64bf6a1f0160401b830492506040015b6d04ee2d6d415b85acef81000000008310612541576d04ee2d6d415b85acef8100000000830492506020015b662386f26fc10000831061255f57662386f26fc10000830492506010015b6305f5e1008310612577576305f5e100830492506008015b612710831061258b57612710830492506004015b6064831061259d576064830492506002015b600a831061068f5760010192915050565b60408051610120810182525f80825260208201819052918101829052606081018290526080810182905260a0810182905260c0810182905260e0810182905261010081019190915290565b6001600160e01b031981168114610a42575f80fd5b5f6020828403121561261e575f80fd5b81356123df816125f9565b5f5b8381101561264357818101518382015260200161262b565b50505f910152565b5f8151808452612662816020860160208601612629565b601f01601f19169290920160200192915050565b602081525f6123df602083018461264b565b5f60208284031215612698575f80fd5b5035919050565b80356001600160a01b03811681146126b5575f80fd5b919050565b5f80604083850312156126cb575f80fd5b6126d48361269f565b946020939093013593505050565b5f805f606084860312156126f4575f80fd5b6126fd8461269f565b925061270b6020850161269f565b9150604084013590509250925092565b5f806040838503121561272c575f80fd5b50508035926020909101359150565b5f6020828403121561274b575f80fd5b6123df8261269f565b602080825282518282018190525f9190848201906040850190845b8181101561278b5783518352928401929184019160010161276f565b50909695505050505050565b5f80604083850312156127a8575f80fd5b6127b18361269f565b9150602083013580151581146127c5575f80fd5b809150509250929050565b634e487b7160e01b5f52604160045260245ffd5b5f67ffffffffffffffff808411156127fe576127fe6127d0565b604051601f8501601f19908116603f01168101908282118183101715612826576128266127d0565b8160405280935085815286868601111561283e575f80fd5b858560208301375f602087830101525050509392505050565b5f805f806080858703121561286a575f80fd5b6128738561269f565b93506128816020860161269f565b925060408501359150606085013567ffffffffffffffff8111156128a3575f80fd5b8501601f810187136128b3575f80fd5b6128c2878235602084016127e4565b91505092959194509250565b80518252602081015160018060a01b03808216602085015280604084015116604085015250506060810151606083015260808101511515608083015260a081015161291d60a084018215159052565b5060c081015160c083015260e081015160e0830152610100808201516107e2828501826001600160a01b03169052565b610120810161068f82846128ce565b5f805f6060848603121561296e575f80fd5b505081359360208301359350604090920135919050565b5f8060408385031215612996575f80fd5b61299f8361269f565b91506129ad6020840161269f565b90509250929050565b602080825282518282018190525f9190848201906040850190845b8181101561278b576129e48385516128ce565b9284019261012092909201916001016129d1565b5f60208284031215612a08575f80fd5b813567ffffffffffffffff811115612a1e575f80fd5b8201601f81018413612a2e575f80fd5b612106848235602084016127e4565b600181811c90821680612a5157607f821691505b602082108103612a6f57634e487b7160e01b5f52602260045260245ffd5b50919050565b634e487b7160e01b5f52601160045260245ffd5b808202811582820484141761068f5761068f612a75565b5f82612aba57634e487b7160e01b5f52601260045260245ffd5b500490565b8181038181111561068f5761068f612a75565b5f60018201612ae357612ae3612a75565b5060010190565b8082018082111561068f5761068f612a75565b634e487b7160e01b5f52603260045260245ffd5b6001600160a01b03858116825284166020820152604081018390526080606082018190525f90612b439083018461264b565b9695505050505050565b5f60208284031215612b5d575f80fd5b81516123df816125f9565b5f8351612b79818460208801612629565b835190830190612b8d818360208801612629565b01949350505050565b601f821115610ee7575f81815260208120601f850160051c81016020861015612bbc5750805b601f850160051c820191505b81811015611ffa57828155600101612bc8565b815167ffffffffffffffff811115612bf557612bf56127d0565b612c0981612c038454612a3d565b84612b96565b602080601f831160018114612c3c575f8415612c255750858301515b5f19600386901b1c1916600185901b178555611ffa565b5f85815260208120601f198616915b82811015612c6a57888601518255948401946001909101908401612c4b565b5085821015612c8757878501515f19600388901b60f8161c191681555b5050505050600190811b0190555056fea2646970667358221220ec961965b27ac5439d3d229fa4e87419744aa019d82d570c753da39ed1f4d48d64736f6c63430008140033","linkReferences":{}},"methodIdentifiers":{"FEE_DENOMINATOR()":"d73792a9","approve(address,uint256)":"095ea7b3","balanceOf(address)":"70a08231","buyMarketItem(uint256)":"351901c3","createAuction(uint256,uint256,uint256)":"cda4beef","createMarketItem(uint256,uint256)":"361c1995","endAuction(uint256)":"b9a2de3a","getAllMarketItems()":"f16d376c","getApproved(uint256)":"081812fc","getMarketItem(uint256)":"c7be7a49","getMyCreatedNFTs(address)":"38debbf1","getMyNFTs(address)":"e921ee6e","isApprovedForAll(address,address)":"e985e9c5","marketItems(uint256)":"51f28e14","minPrice()":"e45be8eb","mintNFT(string)":"fb37e883","name()":"06fdde03","owner()":"8da5cb5b","ownerOf(uint256)":"6352211e","placeBid(uint256)":"9979ef45","platformFeePercentage()":"cdd78cfc","renounceOwnership()":"715018a6","safeTransferFrom(address,address,uint256)":"42842e0e","safeTransferFrom(address,address,uint256,bytes)":"b88d4fde","setApprovalForAll(address,bool)":"a22cb465","setMinPrice(uint256)":"5ea8cd12","setPlatformFeePercentage(uint256)":"8333903e","supportsInterface(bytes4)":"01ffc9a7","symbol()":"95d89b41","tokenURI(uint256)":"c87b56dd","transferFrom(address,address,uint256)":"23b872dd","transferOwnership(address)":"f2fde38b","withdraw()":"3ccfd60b"},"id":42}